{
  "contractName": "SealData",
  "abi": [
    {
      "constant": true,
      "inputs": [],
      "name": "existanceproof",
      "outputs": [
        {
          "name": "",
          "type": "bytes32"
        }
      ],
      "payable": false,
      "stateMutability": "view",
      "type": "function"
    },
    {
      "constant": false,
      "inputs": [
        {
          "name": "_data",
          "type": "string"
        }
      ],
      "name": "notarize",
      "outputs": [],
      "payable": false,
      "stateMutability": "nonpayable",
      "type": "function"
    },
    {
      "constant": true,
      "inputs": [
        {
          "name": "_data",
          "type": "string"
        }
      ],
      "name": "proofFor",
      "outputs": [
        {
          "name": "",
          "type": "bytes32"
        }
      ],
      "payable": false,
      "stateMutability": "view",
      "type": "function"
    }
  ],
  "bytecode": "0x608060405234801561001057600080fd5b50610231806100206000396000f300608060405260043610610057576000357c0100000000000000000000000000000000000000000000000000000000900463ffffffff1680634bcd9a131461005c5780637183616c1461008f578063f6c1acdf146100f8575b600080fd5b34801561006857600080fd5b5061007161017d565b60405180826000191660001916815260200191505060405180910390f35b34801561009b57600080fd5b506100f6600480360381019080803590602001908201803590602001908080601f0160208091040260200160405190810160405280939291908181526020018383808284378201915050505050509192919290505050610183565b005b34801561010457600080fd5b5061015f600480360381019080803590602001908201803590602001908080601f0160208091040260200160405190810160405280939291908181526020018383808284378201915050505050509192919290505050610199565b60405180826000191660001916815260200191505060405180910390f35b60005481565b61018c81610199565b6000816000191690555050565b6000816040518082805190602001908083835b6020831015156101d157805182526020820191506020810190506020830392506101ac565b6001836020036101000a038019825116818451168082178552505050505050905001915050604051809103902090509190505600a165627a7a723058200fe32d430d48181a0ee5328613c27eb059947f2bc3967c8b5317142aee7c5d120029",
  "source": "pragma solidity ^0.4.22;\n\n\ncontract SealData {\n  // Document State\n  bytes32 public existanceproof;\n\n  // Calculate and Seal the proof for a data\n  function notarize(string _data) public {\n    existanceproof = proofFor(_data);\n  }\n\n  // helper function to get a document's sha256\n  function proofFor(string _data) public constant returns (bytes32) {\n    return keccak256(bytes(_data));\n  }\n\n}\n",
  "sourcePath": "C:\\Users\\devra\\Desktop\\BlockChain\\BlockChain\\BlockChain\\truffle\\POCs\\contracts\\SealData.sol",
  "compiler": {
    "name": "solc",
    "version": "0.4.24+commit.e67f0147.Emscripten.clang"
  },
  "schemaVersion": "2.0.1",
  "updatedAt": "2018-08-20T08:17:56.652Z"
}