{
  "contractName": "Store",
  "abi": [
    {
      "inputs": [],
      "payable": false,
      "stateMutability": "nonpayable",
      "type": "constructor"
    },
    {
      "anonymous": false,
      "inputs": [
        {
          "indexed": false,
          "name": "_num",
          "type": "uint256"
        }
      ],
      "name": "numberStored",
      "type": "event"
    },
    {
      "constant": false,
      "inputs": [
        {
          "name": "_num",
          "type": "uint256"
        }
      ],
      "name": "setVariable",
      "outputs": [],
      "payable": false,
      "stateMutability": "nonpayable",
      "type": "function"
    },
    {
      "constant": true,
      "inputs": [],
      "name": "getNumber",
      "outputs": [
        {
          "name": "",
          "type": "uint256"
        }
      ],
      "payable": false,
      "stateMutability": "view",
      "type": "function"
    }
  ],
  "bytecode": "0x608060405234801561001057600080fd5b5033600160006101000a81548173ffffffffffffffffffffffffffffffffffffffff021916908373ffffffffffffffffffffffffffffffffffffffff160217905550610116806100616000396000f3006080604052600436106049576000357c0100000000000000000000000000000000000000000000000000000000900463ffffffff16806386be3f8014604e578063f2c9ecd8146078575b600080fd5b348015605957600080fd5b5060766004803603810190808035906020019092919050505060a0565b005b348015608357600080fd5b50608a60e1565b6040518082815260200191505060405180910390f35b806000819055507f8da6a256d86d8712511dc2e0658b6e4e9b75b4cade2e1141d8d25149992f6bd6816040518082815260200191505060405180910390a150565b600080549050905600a165627a7a72305820450829074d98a252af16d35d823253a8e9899e710b12bd15ad74fa564280aedc0029",
  "source": "pragma solidity ^0.4.22;\n\n\ncontract Store {\n  uint storageVariable;\n  address owner;\n\n  event numberStored(uint _num);\n\n  constructor() public {\n    owner = msg.sender;\n  }\n\n  function setVariable(uint _num) public {\n  /* Infinite loop for debugging # 1\n    while(true){\n      storageVariable = _num;\n    } */\n\n  /* #2 using assert statement : Smart contracts can use statements like assert() to ensure that certain conditions are met. \n  These can conflict with the state of the contract in ways that are irreconcilable.*/\n  //  assert(_num == 0);\n    storageVariable = _num;\n\n    emit numberStored(_num);\n  }\n\n  function getNumber() public view returns(uint){\n    return storageVariable;\n  }\n}\n",
  "sourcePath": "C:\\Users\\devra\\Desktop\\BlockChain\\BlockChain\\truffle\\DebugingSample\\contracts\\Store.sol",
  "compiler": {
    "name": "solc",
    "version": "0.4.24+commit.e67f0147.Emscripten.clang"
  },
  "schemaVersion": "2.0.1",
  "updatedAt": "2018-08-13T16:51:17.255Z"
}