{
  "contractName": "Store",
  "abi": [
    {
      "inputs": [],
      "payable": false,
      "stateMutability": "nonpayable",
      "type": "constructor"
    },
    {
      "anonymous": false,
      "inputs": [
        {
          "indexed": false,
          "name": "",
          "type": "uint256"
        }
      ],
      "name": "numberStored",
      "type": "event"
    },
    {
      "constant": false,
      "inputs": [
        {
          "name": "_num",
          "type": "uint256"
        }
      ],
      "name": "setVariable",
      "outputs": [],
      "payable": false,
      "stateMutability": "nonpayable",
      "type": "function"
    },
    {
      "constant": true,
      "inputs": [],
      "name": "getNumber",
      "outputs": [
        {
          "name": "",
          "type": "uint256"
        }
      ],
      "payable": false,
      "stateMutability": "view",
      "type": "function"
    }
  ],
  "bytecode": "0x608060405234801561001057600080fd5b50610116806100206000396000f3006080604052600436106049576000357c0100000000000000000000000000000000000000000000000000000000900463ffffffff16806386be3f8014604e578063f2c9ecd8146078575b600080fd5b348015605957600080fd5b5060766004803603810190808035906020019092919050505060a0565b005b348015608357600080fd5b50608a60e1565b6040518082815260200191505060405180910390f35b806000819055507f8da6a256d86d8712511dc2e0658b6e4e9b75b4cade2e1141d8d25149992f6bd6816040518082815260200191505060405180910390a150565b600080549050905600a165627a7a72305820f66489b7f7ccd29a857922fdd7f8eb87a533dafc5dc831e3db0539eebeaa1f870029",
  "source": "pragma solidity ^0.4.22;\n\n\ncontract Store {\n  uint storageVariable;\n\n  event numberStored(uint);\n\n  constructor() public {\n  }\n\n  function setVariable(uint _num) public {\n    storageVariable = _num;\n    emit numberStored(_num);\n  }\n\n  function getNumber() public view returns(uint){\n    return storageVariable;\n  }\n}\n",
  "sourcePath": "C:\\Users\\devra\\Desktop\\BlockChain\\BlockChain\\truffle\\DebugingSample\\contracts\\Store.sol",
  "compiler": {
    "name": "solc",
    "version": "0.4.24+commit.e67f0147.Emscripten.clang"
  },
  "schemaVersion": "2.0.1",
  "updatedAt": "2018-08-13T08:00:59.086Z"
}