{
  "contractName": "thisVariable",
  "abi": [
    {
      "inputs": [],
      "payable": false,
      "stateMutability": "nonpayable",
      "type": "constructor"
    },
    {
      "constant": false,
      "inputs": [],
      "name": "updateInfo",
      "outputs": [],
      "payable": false,
      "stateMutability": "nonpayable",
      "type": "function"
    }
  ],
  "bytecode": "0x6080604052348015600f57600080fd5b506101058061001f6000396000f300608060405260043610603f576000357c0100000000000000000000000000000000000000000000000000000000900463ffffffff168063b7c9252c146044575b600080fd5b348015604f57600080fd5b5060566058565b005b306000806101000a81548173ffffffffffffffffffffffffffffffffffffffff021916908373ffffffffffffffffffffffffffffffffffffffff1602179055506000809054906101000a900473ffffffffffffffffffffffffffffffffffffffff1673ffffffffffffffffffffffffffffffffffffffff16316001819055505600a165627a7a723058202a95503cf9f98bdd381faec84d04edbb793e03e3263dfcab3a28dbbfae81895b0029",
  "source": "pragma solidity ^0.4.22;\n\n\ncontract thisVariable {\n  address ownerAddress;\n  uint ownerBalance;\n\n  constructor() public {\n  }\n\n  function updateInfo() public {\n    ownerAddress = this;\n    ownerBalance = address(ownerAddress).balance;\n  }\n}\n",
  "sourcePath": "c:\\Users\\devra\\Desktop\\BlockChain\\BlockChain\\BlockChain\\truffle\\SamplesSteemit\\contracts\\thisVariable.sol",
  "compiler": {
    "name": "solc",
    "version": "0.4.24+commit.e67f0147.Emscripten.clang"
  },
  "schemaVersion": "2.0.1",
  "updatedAt": "2018-08-28T04:07:35.397Z"
}