{
  "contractName": "Concatenate",
  "abi": [
    {
      "inputs": [],
      "payable": false,
      "stateMutability": "nonpayable",
      "type": "constructor"
    },
    {
      "constant": false,
      "inputs": [],
      "name": "strOperation",
      "outputs": [],
      "payable": false,
      "stateMutability": "nonpayable",
      "type": "function"
    }
  ],
  "bytecode": "0x6080604052606060405190810160405280600160000b60000b8152602001600260000b8152602001600360000b815250600390600361003f929190610092565b5034801561004c57600080fd5b50336000806101000a81548173ffffffffffffffffffffffffffffffffffffffff021916908373ffffffffffffffffffffffffffffffffffffffff16021790555061016c565b82805482825590600052602060002090601f0160209004810192821561012b5791602002820160005b838211156100fc57835183826101000a81548160ff021916908360000b60ff16021790555092602001926001016020816000010492830192600103026100bb565b80156101295782816101000a81549060ff02191690556001016020816000010492830192600103026100fc565b505b509050610138919061013c565b5090565b61016991905b8082111561016557600081816101000a81549060ff021916905550600101610142565b5090565b90565b60868061017a6000396000f300608060405260043610603f576000357c0100000000000000000000000000000000000000000000000000000000900463ffffffff16806314709a92146044575b600080fd5b348015604f57600080fd5b5060566058565b005b5600a165627a7a723058205c544c5b05d47aa10af1f311738530adad4f29413715ec6277b5a9e46464adc10029",
  "source": "pragma solidity ^0.4.22;\n\n\ncontract Concatenate {\n  address contractOwner;\n  string str1;\n  string str2;\n\n  int8[] array = [int8(1),2,3];\n\n\n  constructor() public {\n    contractOwner = msg.sender;\n  }\n\n  function strOperation() public{\n      int8[] memory arrayMemory;\n      byte[4] fixByteArry;\n\n      \n    //string memory word1;\n    //word1 = words[0];\n    //str2 = words[1][];\n  }\n}\n",
  "sourcePath": "C:\\Users\\devra\\Desktop\\BlockChain\\BlockChain\\truffle\\StringFunction\\contracts\\Concatenate.sol",
  "compiler": {
    "name": "solc",
    "version": "0.4.24+commit.e67f0147.Emscripten.clang"
  },
  "schemaVersion": "2.0.1",
  "updatedAt": "2018-08-11T01:59:02.543Z"
}