{
  "contractName": "Enum",
  "abi": [
    {
      "inputs": [],
      "payable": false,
      "stateMutability": "nonpayable",
      "type": "constructor"
    },
    {
      "constant": true,
      "inputs": [
        {
          "name": "distance",
          "type": "uint256"
        },
        {
          "name": "units",
          "type": "uint256"
        }
      ],
      "name": "calculateFutureTime",
      "outputs": [
        {
          "name": "",
          "type": "uint256"
        }
      ],
      "payable": false,
      "stateMutability": "view",
      "type": "function"
    }
  ],
  "bytecode": "0x608060405234801561001057600080fd5b50336000806101000a81548173ffffffffffffffffffffffffffffffffffffffff021916908373ffffffffffffffffffffffffffffffffffffffff160217905550610120806100606000396000f300608060405260043610603f576000357c0100000000000000000000000000000000000000000000000000000000900463ffffffff168063be99478e146044575b600080fd5b348015604f57600080fd5b5060766004803603810190808035906020019092919080359060200190929190505050608c565b6040518082815260200191505060405180910390f35b6000806002811115609957fe5b82141560ab57603c83024201905060ee565b6001600281111560b757fe5b82141560ca57610e1083024201905060ee565b60028081111560d557fe5b82141560e9576201518083024201905060ee565b600190505b929150505600a165627a7a72305820cd9c968829ef0d5564c8f32f379ce5fb0ef64630561ea54d15cb83077aa69efa0029",
  "source": "pragma solidity ^0.4.22;\n\n\ncontract Enum {\nenum  TimeUnit  {Minute, Hour, Day}\n    address contractOwner;\n    \n    constructor() public {\n        contractOwner = msg.sender;\n    }\n    \n    /**\n    * Calculates the time in future\n    * Takes a number & a unit for the number e.g., 10 minute, 10 Hour\n    **/\n    function  calculateFutureTime(uint distance, uint units)  public view returns (uint) {\n        if (units == uint(TimeUnit.Minute)) {\n            return (now + distance*1 minutes);\n        } else if (units == uint(TimeUnit.Hour)) {\n            return (now + distance*1 hours);\n        } else if (units == uint(TimeUnit.Day)) {\n            return (now + distance*1 days);\n        }\n        return 1;\n    }\n}\n",
  "sourcePath": "C:\\Users\\devra\\Desktop\\BlockChain\\BlockChain\\truffle\\StringFunction\\contracts\\Enum.sol",
  "compiler": {
    "name": "solc",
    "version": "0.4.24+commit.e67f0147.Emscripten.clang"
  },
  "schemaVersion": "2.0.1",
  "updatedAt": "2018-08-11T01:59:02.565Z"
}