{
  "contractName": "Global",
  "abi": [
    {
      "constant": true,
      "inputs": [],
      "name": "lastCaller",
      "outputs": [
        {
          "name": "",
          "type": "string"
        }
      ],
      "payable": false,
      "stateMutability": "view",
      "type": "function"
    },
    {
      "inputs": [],
      "payable": false,
      "stateMutability": "nonpayable",
      "type": "constructor"
    },
    {
      "constant": true,
      "inputs": [],
      "name": "getBlockInformation",
      "outputs": [
        {
          "name": "number",
          "type": "uint256"
        },
        {
          "name": "hash",
          "type": "bytes32"
        },
        {
          "name": "coinbase",
          "type": "address"
        },
        {
          "name": "difficulty",
          "type": "uint256"
        }
      ],
      "payable": false,
      "stateMutability": "view",
      "type": "function"
    },
    {
      "constant": true,
      "inputs": [],
      "name": "getMsgInformation",
      "outputs": [
        {
          "name": "data",
          "type": "bytes"
        },
        {
          "name": "sig",
          "type": "bytes4"
        },
        {
          "name": "sender",
          "type": "address"
        }
      ],
      "payable": false,
      "stateMutability": "view",
      "type": "function"
    },
    {
      "constant": false,
      "inputs": [
        {
          "name": "name",
          "type": "string"
        }
      ],
      "name": "revertBehavior",
      "outputs": [
        {
          "name": "",
          "type": "bool"
        }
      ],
      "payable": false,
      "stateMutability": "nonpayable",
      "type": "function"
    }
  ],
  "bytecode": "0x60806040526040805190810160405280600781526020017f6e6f742d736574000000000000000000000000000000000000000000000000008152506000908051906020019061004f929190610062565b5034801561005c57600080fd5b50610107565b828054600181600116156101000203166002900490600052602060002090601f016020900481019282601f106100a357805160ff19168380011785556100d1565b828001600101855582156100d1579182015b828111156100d05782518255916020019190600101906100b5565b5b5090506100de91906100e2565b5090565b61010491905b808211156101005760008160009055506001016100e8565b5090565b90565b61051a806101166000396000f300608060405260043610610062576000357c0100000000000000000000000000000000000000000000000000000000900463ffffffff1680632113522a146100675780638e663b06146100f7578063d3660c1c146101ff578063de7066f114610280575b600080fd5b34801561007357600080fd5b5061007c6102f4565b6040518080602001828103825283818151815260200191508051906020019080838360005b838110156100bc5780820151818401526020810190506100a1565b50505050905090810190601f1680156100e95780820380516001836020036101000a031916815260200191505b509250505060405180910390f35b34801561010357600080fd5b5061010c610392565b6040518080602001847bffffffffffffffffffffffffffffffffffffffffffffffffffffffff19167bffffffffffffffffffffffffffffffffffffffffffffffffffffffff191681526020018373ffffffffffffffffffffffffffffffffffffffff1673ffffffffffffffffffffffffffffffffffffffff168152602001828103825285818151815260200191508051906020019080838360005b838110156101c25780820151818401526020810190506101a7565b50505050905090810190601f1680156101ef5780820380516001836020036101000a031916815260200191505b5094505050505060405180910390f35b34801561020b57600080fd5b50610266600480360381019080803590602001908201803590602001908080601f01602080910402602001604051908101604052809392919081815260200183838082843782019150505050505091929192905050506103fc565b604051808215151515815260200191505060405180910390f35b34801561028c57600080fd5b5061029561042d565b6040518085815260200184600019166000191681526020018373ffffffffffffffffffffffffffffffffffffffff1673ffffffffffffffffffffffffffffffffffffffff16815260200182815260200194505050505060405180910390f35b60008054600181600116156101000203166002900480601f01602080910402602001604051908101604052809291908181526020018280546001816001161561010002031660029004801561038a5780601f1061035f5761010080835404028352916020019161038a565b820191906000526020600020905b81548152906001019060200180831161036d57829003601f168201915b505050505081565b60606000806000368080601f01602080910402602001604051908101604052809392919081815260200183838082843782019150505050505092506000357fffffffff00000000000000000000000000000000000000000000000000000000169150339050909192565b60008160009080519060200190610414929190610449565b5060008251141561042457600080fd5b60019050919050565b6000806000804393506001840340925041915044905090919293565b828054600181600116156101000203166002900490600052602060002090601f016020900481019282601f1061048a57805160ff19168380011785556104b8565b828001600101855582156104b8579182015b828111156104b757825182559160200191906001019061049c565b5b5090506104c591906104c9565b5090565b6104eb91905b808211156104e75760008160009055506001016104cf565b5090565b905600a165627a7a72305820f4e7d4d75a34fa617d87708100ec2ae64fe5fe1f4c5037c171db8acdbbd1755a0029",
  "source": "pragma solidity ^0.4.22;\n\n\ncontract Global {\n\n  string  public lastCaller = \"not-set\";  \n\n  constructor() public {\n  }\n\n    // Demonstrates the use of block object\n    function  getBlockInformation() public view returns (uint number, bytes32 hash, address coinbase, uint difficulty) {\n        number = block.number; // Previous block\n        hash = blockhash(number-1); // -1 because excluding current\n        // Current block\n        coinbase = block.coinbase;  \n        difficulty = block.difficulty;\n    }  \n\n    // Demonstrates the use of the msg object\n    function getMsgInformation() public view returns (bytes data, bytes4  sig, address sender) {\n        data = msg.data;\n        sig = msg.sig;\n        sender = msg.sender;\n    }\n\n    function  revertBehavior(string name) public returns (bool) {\n        lastCaller = name;\n\n        // Check if length of the string is zero\n        if (bytes(name).length == 0) {\n            revert();\n        }\n\n        // The above lines of code may be replaced with this\n        //require(bytes(name).length > 0);\n        return true;\n    }\n\n\n\n}\n",
  "sourcePath": "C:\\Users\\devra\\Desktop\\BlockChain\\BlockChain\\truffle\\StringFunction\\contracts\\Global.sol",
  "compiler": {
    "name": "solc",
    "version": "0.4.24+commit.e67f0147.Emscripten.clang"
  },
  "schemaVersion": "2.0.1",
  "updatedAt": "2018-08-11T02:00:33.471Z"
}