{
  "contractName": "MultiNumberBettingV3",
  "abi": [
    {
      "constant": true,
      "inputs": [],
      "name": "lastWinnerAt",
      "outputs": [
        {
          "name": "",
          "type": "uint256"
        }
      ],
      "payable": false,
      "stateMutability": "view",
      "type": "function"
    },
    {
      "constant": true,
      "inputs": [],
      "name": "loserCount",
      "outputs": [
        {
          "name": "",
          "type": "uint256"
        }
      ],
      "payable": false,
      "stateMutability": "view",
      "type": "function"
    },
    {
      "constant": true,
      "inputs": [],
      "name": "winnerCount",
      "outputs": [
        {
          "name": "",
          "type": "uint256"
        }
      ],
      "payable": false,
      "stateMutability": "view",
      "type": "function"
    },
    {
      "inputs": [
        {
          "name": "num1",
          "type": "uint8"
        },
        {
          "name": "num2",
          "type": "uint8"
        },
        {
          "name": "num3",
          "type": "uint8"
        }
      ],
      "payable": false,
      "stateMutability": "nonpayable",
      "type": "constructor"
    },
    {
      "constant": false,
      "inputs": [
        {
          "name": "betNumber",
          "type": "uint8"
        },
        {
          "name": "name",
          "type": "string"
        }
      ],
      "name": "guess",
      "outputs": [
        {
          "name": "",
          "type": "bool"
        }
      ],
      "payable": false,
      "stateMutability": "nonpayable",
      "type": "function"
    },
    {
      "constant": true,
      "inputs": [],
      "name": "getLastWinner",
      "outputs": [
        {
          "name": "",
          "type": "string"
        }
      ],
      "payable": false,
      "stateMutability": "view",
      "type": "function"
    },
    {
      "constant": true,
      "inputs": [],
      "name": "totalGuesses",
      "outputs": [
        {
          "name": "",
          "type": "uint256"
        }
      ],
      "payable": false,
      "stateMutability": "view",
      "type": "function"
    },
    {
      "constant": true,
      "inputs": [],
      "name": "daysSinceLastWinning",
      "outputs": [
        {
          "name": "",
          "type": "uint256"
        }
      ],
      "payable": false,
      "stateMutability": "view",
      "type": "function"
    },
    {
      "constant": true,
      "inputs": [],
      "name": "hoursSinceLastWinning",
      "outputs": [
        {
          "name": "",
          "type": "uint256"
        }
      ],
      "payable": false,
      "stateMutability": "view",
      "type": "function"
    },
    {
      "constant": true,
      "inputs": [],
      "name": "minutesSinceLastWinning",
      "outputs": [
        {
          "name": "",
          "type": "uint256"
        }
      ],
      "payable": false,
      "stateMutability": "view",
      "type": "function"
    }
  ],
  "bytecode": "0x608060405234801561001057600080fd5b50604051606080610851833981018060405281019080805190602001909291908051906020019092919080519060200190929190505050826004600060038110151561005857fe5b602091828204019190066101000a81548160ff021916908360ff160217905550816004600160038110151561008957fe5b602091828204019190066101000a81548160ff021916908360ff16021790555080600460026003811015156100ba57fe5b602091828204019190066101000a81548160ff021916908360ff160217905550505050610765806100ec6000396000f300608060405260043610610099576000357c0100000000000000000000000000000000000000000000000000000000900463ffffffff1680630f8df5b41461009e57806315153cdc146100c957806348992bfa146100f4578063524799a71461011f5780636d48a0431461014a5780638ef282491461017557806395583f71146101a0578063caa02e081461022e578063f88649a114610259575b600080fd5b3480156100aa57600080fd5b506100b36102e9565b6040518082815260200191505060405180910390f35b3480156100d557600080fd5b506100de6102ef565b6040518082815260200191505060405180910390f35b34801561010057600080fd5b5061010961032a565b6040518082815260200191505060405180910390f35b34801561012b57600080fd5b50610134610367565b6040518082815260200191505060405180910390f35b34801561015657600080fd5b5061015f61036d565b6040518082815260200191505060405180910390f35b34801561018157600080fd5b5061018a6103a5565b6040518082815260200191505060405180910390f35b3480156101ac57600080fd5b50610214600480360381019080803560ff169060200190929190803590602001908201803590602001908080601f01602080910402602001604051908101604052809392919081815260200183838082843782019150505050505091929192905050506103b2565b604051808215151515815260200191505060405180910390f35b34801561023a57600080fd5b5061024361049f565b6040518082815260200191505060405180910390f35b34801561026557600080fd5b5061026e6104a5565b6040518080602001828103825283818151815260200191508051906020019080838360005b838110156102ae578082015181840152602081019050610293565b50505050905090810190601f1680156102db5780820380516001836020036101000a031916815260200191505b509250505060405180910390f35b60025481565b60008060004291506000600254141561030b5760009250610325565b6018603c60025484030281151561031e57fe5b0490508092505b505090565b6000806000429150600060025414156103465760009250610362565b6018603c806002548503020281151561035b57fe5b0490508092505b505090565b60005481565b60008060004291506000600254141561038957600092506103a0565b6018600254830381151561039957fe5b0490508092505b505090565b6000805460015401905090565b600080600090505b60038160ff161015610482578360ff1660048260ff166003811015156103dc57fe5b602091828204019190069054906101000a900460ff1660ff161415610475576001600081548092919060010191905055508260039080519060200190610423929190610694565b504260028190555033600560006101000a81548173ffffffffffffffffffffffffffffffffffffffff021916908373ffffffffffffffffffffffffffffffffffffffff16021790555060019150610498565b80806001019150506103ba565b6000808154809291906001019190505550600091505b5092915050565b60015481565b606080606080600060038054600181600116156101000203166002900480601f0160208091040260200160405190810160405280929190818152602001828054600181600116156101000203166002900480156105435780601f1061051857610100808354040283529160200191610543565b820191906000526020600020905b81548152906001019060200180831161052657829003601f168201915b50505050509350600084511415610591576040805190810160405280600381526020017f2a2a2a0000000000000000000000000000000000000000000000000000000000815250945061068d565b60036040519080825280601f01601f1916602001820160405280156105c55781602001602082028038833980820191505090505b509250829150600090505b6003811080156105e05750835181105b156106895783818151811015156105f357fe5b9060200101517f010000000000000000000000000000000000000000000000000000000000000090047f010000000000000000000000000000000000000000000000000000000000000002828281518110151561064c57fe5b9060200101907effffffffffffffffffffffffffffffffffffffffffffffffffffffffffffff1916908160001a90535080806001019150506105d0565b8194505b5050505090565b828054600181600116156101000203166002900490600052602060002090601f016020900481019282601f106106d557805160ff1916838001178555610703565b82800160010185558215610703579182015b828111156107025782518255916020019190600101906106e7565b5b5090506107109190610714565b5090565b61073691905b8082111561073257600081600090555060010161071a565b5090565b905600a165627a7a723058208b9cd1905d1ce3b1f42cd6a0726d3e8d753e7deaa42ddab4fc014c6e65a6266b0029",
  "source": "pragma solidity ^0.4.22;\n\ncontract MultiNumberBettingV3 {\n\n  // Public to generate the getters\n    uint public  loserCount;\n    uint public  winnerCount;\n    uint public lastWinnerAt;\n\n    string lastWinnerName;\n    uint8[3] storageArray;\n\n    address winner;\n\n   constructor(uint8 num1, uint8 num2, uint8 num3) public {\n        storageArray[0] = num1;   // 0\n        storageArray[1] = num2;   // 5\n        storageArray[2] = num3;   // 7\n    }  \n\n    function guess(uint8 betNumber, string name) public returns(bool) {\n    \n    for(uint8 i=0; i < storageArray.length; i++){\n        if (storageArray[i] == betNumber) {\n        // Increase the winner count\n          winnerCount++;\n          lastWinnerName = name;\n          lastWinnerAt = block.timestamp;  // can also use now\n          winner = msg.sender;\n          \n          return true;\n        } \n     }\n     \n    loserCount++;\n    return false;\n    } \n\n  // Ex-3\n  function getLastWinner() public view returns (string) {\n\n      bytes memory nameBytes = bytes(lastWinnerName);\n      // If no winner send \"***\"\n      if (nameBytes.length == 0) {\n        return \"***\";\n      }\n\n    string memory retString = new string(3);\n\n    bytes memory toReturn = bytes(retString);\n\n    // 2nd check to cover a winner name less than 3 bytes\n    for (uint i = 0; (i < 3) && (i < nameBytes.length); i++) {\n      toReturn[i] = nameBytes[i];\n    }\n\n    return string(toReturn);\n  }\n\n// Total Bet played in the game\n  function totalGuesses() public view returns (uint){\n      return (winnerCount+loserCount);\n  }\n\n  function daysSinceLastWinning() public view returns(uint){\n    uint currentDateTime = block.timestamp;\n    uint dayPassed;\n\n    if (lastWinnerAt == 0) {\n      return 0;\n    } else {\n     dayPassed = (currentDateTime - lastWinnerAt)/24;\n     return dayPassed;\n    }\n  }\n \n  function hoursSinceLastWinning() public view returns(uint){\n    uint currentDateTime = block.timestamp;\n    uint dayPassed;\n\n    if (lastWinnerAt == 0) {\n      return 0;\n    } else {\n     dayPassed = ((currentDateTime - lastWinnerAt)*60)/24;\n     return dayPassed;\n    }\n  }\n\n  function minutesSinceLastWinning() public view returns(uint){\n    uint currentDateTime = block.timestamp;\n    uint dayPassed;\n\n    if (lastWinnerAt == 0) {\n      return 0;\n    } else {\n     dayPassed = ((currentDateTime - lastWinnerAt)*60*60)/24;\n     return dayPassed;\n    }\n  }\n\n  function timeSinceLastWinner() private constant returns(uint) {\n    uint timeSince = now - lastWinnerAt * 1 seconds;\n\n    timeSince < now ? lastWinnerAt : 0;\n  }\n    \n}\n",
  "sourcePath": "c:\\Users\\devra\\Desktop\\BlockChain\\myRopsten\\truffle\\BlockchianLearningDemos\\contracts\\MultiNumberBettingV3.sol",
  "compiler": {
    "name": "solc",
    "version": "0.4.24+commit.e67f0147.Emscripten.clang"
  },
  "schemaVersion": "2.0.1",
  "updatedAt": "2018-07-13T15:57:57.341Z"
}