{
  "contractName": "MultiNumberBettingV2",
  "abi": [
    {
      "inputs": [
        {
          "name": "num1",
          "type": "uint8"
        },
        {
          "name": "num2",
          "type": "uint8"
        },
        {
          "name": "num3",
          "type": "uint8"
        }
      ],
      "payable": false,
      "stateMutability": "nonpayable",
      "type": "constructor"
    },
    {
      "constant": false,
      "inputs": [
        {
          "name": "betNumber",
          "type": "uint8"
        },
        {
          "name": "name",
          "type": "string"
        }
      ],
      "name": "guess",
      "outputs": [
        {
          "name": "",
          "type": "bool"
        }
      ],
      "payable": false,
      "stateMutability": "nonpayable",
      "type": "function"
    },
    {
      "constant": false,
      "inputs": [],
      "name": "getLastWinner",
      "outputs": [
        {
          "name": "",
          "type": "string"
        }
      ],
      "payable": false,
      "stateMutability": "nonpayable",
      "type": "function"
    },
    {
      "constant": false,
      "inputs": [],
      "name": "totalGuesses",
      "outputs": [
        {
          "name": "",
          "type": "uint256"
        }
      ],
      "payable": false,
      "stateMutability": "nonpayable",
      "type": "function"
    }
  ],
  "bytecode": "0x608060405234801561001057600080fd5b50604051606080610603833981018060405281019080805190602001909291908051906020019092919080519060200190929190505050826003600060038110151561005857fe5b602091828204019190066101000a81548160ff021916908360ff160217905550816003600160038110151561008957fe5b602091828204019190066101000a81548160ff021916908360ff16021790555080600360026003811015156100ba57fe5b602091828204019190066101000a81548160ff021916908360ff160217905550505050610517806100ec6000396000f300608060405260043610610057576000357c0100000000000000000000000000000000000000000000000000000000900463ffffffff1680638ef282491461005c57806395583f7114610087578063f88649a114610115575b600080fd5b34801561006857600080fd5b506100716101a5565b6040518082815260200191505060405180910390f35b34801561009357600080fd5b506100fb600480360381019080803560ff169060200190929190803590602001908201803590602001908080601f01602080910402602001604051908101604052809392919081815260200183838082843782019150505050505091929192905050506101b2565b604051808215151515815260200191505060405180910390f35b34801561012157600080fd5b5061012a610257565b6040518080602001828103825283818151815260200191508051906020019080838360005b8381101561016a57808201518184015260208101905061014f565b50505050905090810190601f1680156101975780820380516001836020036101000a031916815260200191505b509250505060405180910390f35b6000805460015401905090565b600080600090505b60038160ff16101561023a578360ff1660038260ff166003811015156101dc57fe5b602091828204019190069054906101000a900460ff1660ff16141561022d576001600081548092919060010191905055508260029080519060200190610223929190610446565b5060019150610250565b80806001019150506101ba565b6000808154809291906001019190505550600091505b5092915050565b606080606080600060028054600181600116156101000203166002900480601f0160208091040260200160405190810160405280929190818152602001828054600181600116156101000203166002900480156102f55780601f106102ca576101008083540402835291602001916102f5565b820191906000526020600020905b8154815290600101906020018083116102d857829003601f168201915b50505050509350600084511415610343576040805190810160405280600381526020017f2a2a2a0000000000000000000000000000000000000000000000000000000000815250945061043f565b60036040519080825280601f01601f1916602001820160405280156103775781602001602082028038833980820191505090505b509250829150600090505b6003811080156103925750835181105b1561043b5783818151811015156103a557fe5b9060200101517f010000000000000000000000000000000000000000000000000000000000000090047f01000000000000000000000000000000000000000000000000000000000000000282828151811015156103fe57fe5b9060200101907effffffffffffffffffffffffffffffffffffffffffffffffffffffffffffff1916908160001a9053508080600101915050610382565b8194505b5050505090565b828054600181600116156101000203166002900490600052602060002090601f016020900481019282601f1061048757805160ff19168380011785556104b5565b828001600101855582156104b5579182015b828111156104b4578251825591602001919060010190610499565b5b5090506104c291906104c6565b5090565b6104e891905b808211156104e45760008160009055506001016104cc565b5090565b905600a165627a7a72305820caf49772af85609f345c425a56a3f29047088ad2b8ba2e9dc49a4d3de2c0dc080029",
  "source": "pragma solidity ^0.4.22;\n\ncontract MultiNumberBettingV2 {\n\n    uint loserCount;\n    uint winnerCount;\n    string lastWinnerName;\n    uint8[3] storageArray;\n\n   constructor(uint8 num1, uint8 num2, uint8 num3) public {\n        storageArray[0] = num1;   // 0\n        storageArray[1] = num2;   // 5\n        storageArray[2] = num3;   // 7\n    }  \n\n    function guess(uint8 betNumber, string name) public returns(bool) {\n\n     for(uint8 i=0; i < storageArray.length; i++){\n        if (storageArray[i] == betNumber) {\n        // Increase the winner count\n          winnerCount++;\n          lastWinnerName = name;\n          return true;\n        } \n     }\n     \n    loserCount++;\n    return false;\n    } \n\n  // Ex-3\n  function getLastWinner() returns (string) {\n\n      bytes memory nameBytes = bytes(lastWinnerName);\n      // If no winner send \"***\"\n      if (nameBytes.length == 0) {\n        return \"***\";\n      }\n\n    string memory retString = new string(3);\n\n    bytes memory toReturn = bytes(retString);\n\n    // 2nd check to cover a winner name less than 3 bytes\n    for (uint i = 0; (i < 3) && (i < nameBytes.length); i++) {\n      toReturn[i] = nameBytes[i];\n    }\n\n    return string(toReturn);\n  }\n\n// Total Bet played in the game\n  function totalGuesses() public returns (uint){\n      return (winnerCount+loserCount);\n  }\n\n \n}\n",
  "sourcePath": "c:\\Users\\devra\\Desktop\\BlockChain\\myRopsten\\truffle\\BlockchianLearningDemos\\contracts\\MultiNumberBettingV2.sol",
  "compiler": {
    "name": "solc",
    "version": "0.4.24+commit.e67f0147.Emscripten.clang"
  },
  "schemaVersion": "2.0.1",
  "updatedAt": "2018-07-13T00:53:24.734Z"
}