{
  "contractName": "MultiNumberBettingV4",
  "abi": [
    {
      "constant": true,
      "inputs": [],
      "name": "lastWinnerAt",
      "outputs": [
        {
          "name": "",
          "type": "uint256"
        }
      ],
      "payable": false,
      "stateMutability": "view",
      "type": "function"
    },
    {
      "constant": true,
      "inputs": [],
      "name": "loserCount",
      "outputs": [
        {
          "name": "",
          "type": "uint256"
        }
      ],
      "payable": false,
      "stateMutability": "view",
      "type": "function"
    },
    {
      "constant": true,
      "inputs": [],
      "name": "winnerCount",
      "outputs": [
        {
          "name": "",
          "type": "uint256"
        }
      ],
      "payable": false,
      "stateMutability": "view",
      "type": "function"
    },
    {
      "inputs": [
        {
          "name": "num1",
          "type": "uint8"
        },
        {
          "name": "num2",
          "type": "uint8"
        },
        {
          "name": "num3",
          "type": "uint8"
        }
      ],
      "payable": false,
      "stateMutability": "nonpayable",
      "type": "constructor"
    },
    {
      "constant": false,
      "inputs": [
        {
          "name": "betNumber",
          "type": "uint8"
        },
        {
          "name": "name",
          "type": "string"
        }
      ],
      "name": "guess",
      "outputs": [
        {
          "name": "",
          "type": "bool"
        }
      ],
      "payable": false,
      "stateMutability": "nonpayable",
      "type": "function"
    },
    {
      "constant": false,
      "inputs": [],
      "name": "getLastWinnerInfo",
      "outputs": [
        {
          "name": "winnerAddress1",
          "type": "address"
        },
        {
          "name": "name1",
          "type": "string"
        },
        {
          "name": "guess1",
          "type": "uint256"
        },
        {
          "name": "guessedAt1",
          "type": "uint256"
        }
      ],
      "payable": false,
      "stateMutability": "nonpayable",
      "type": "function"
    },
    {
      "constant": true,
      "inputs": [
        {
          "name": "winnerAddress",
          "type": "address"
        }
      ],
      "name": "checkWinning",
      "outputs": [
        {
          "name": "checkWinnerAddress",
          "type": "address"
        },
        {
          "name": "checkWinnerName",
          "type": "string"
        },
        {
          "name": "checkWinnerguessVal",
          "type": "uint256"
        },
        {
          "name": "checkWinnerguessedAt",
          "type": "uint256"
        }
      ],
      "payable": false,
      "stateMutability": "view",
      "type": "function"
    },
    {
      "constant": true,
      "inputs": [],
      "name": "totalGuesses",
      "outputs": [
        {
          "name": "",
          "type": "uint256"
        }
      ],
      "payable": false,
      "stateMutability": "view",
      "type": "function"
    },
    {
      "constant": true,
      "inputs": [],
      "name": "daysSinceLastWinning",
      "outputs": [
        {
          "name": "",
          "type": "uint256"
        }
      ],
      "payable": false,
      "stateMutability": "view",
      "type": "function"
    },
    {
      "constant": true,
      "inputs": [],
      "name": "hoursSinceLastWinning",
      "outputs": [
        {
          "name": "",
          "type": "uint256"
        }
      ],
      "payable": false,
      "stateMutability": "view",
      "type": "function"
    },
    {
      "constant": true,
      "inputs": [],
      "name": "minutesSinceLastWinning",
      "outputs": [
        {
          "name": "",
          "type": "uint256"
        }
      ],
      "payable": false,
      "stateMutability": "view",
      "type": "function"
    }
  ],
  "bytecode": "0x608060405234801561001057600080fd5b50604051606080610e77833981018060405281019080805190602001909291908051906020019092919080519060200190929190505050826004600060038110151561005857fe5b602091828204019190066101000a81548160ff021916908360ff160217905550816004600160038110151561008957fe5b602091828204019190066101000a81548160ff021916908360ff16021790555080600460026003811015156100ba57fe5b602091828204019190066101000a81548160ff021916908360ff160217905550505050610d8b806100ec6000396000f3006080604052600436106100a4576000357c0100000000000000000000000000000000000000000000000000000000900463ffffffff1680630f8df5b4146100a957806315153cdc146100d457806348992bfa146100ff578063524799a71461012a5780635249c231146101555780636d48a043146102525780638ef282491461027d57806395583f71146102a8578063caa02e0814610336578063ee040eb914610361575b600080fd5b3480156100b557600080fd5b506100be610432565b6040518082815260200191505060405180910390f35b3480156100e057600080fd5b506100e9610438565b6040518082815260200191505060405180910390f35b34801561010b57600080fd5b50610114610473565b6040518082815260200191505060405180910390f35b34801561013657600080fd5b5061013f6104b0565b6040518082815260200191505060405180910390f35b34801561016157600080fd5b50610196600480360381019080803573ffffffffffffffffffffffffffffffffffffffff1690602001909291905050506104b6565b604051808573ffffffffffffffffffffffffffffffffffffffff1673ffffffffffffffffffffffffffffffffffffffff16815260200180602001848152602001838152602001828103825285818151815260200191508051906020019080838360005b838110156102145780820151818401526020810190506101f9565b50505050905090810190601f1680156102415780820380516001836020036101000a031916815260200191505b509550505050505060405180910390f35b34801561025e57600080fd5b506102676107fc565b6040518082815260200191505060405180910390f35b34801561028957600080fd5b50610292610834565b6040518082815260200191505060405180910390f35b3480156102b457600080fd5b5061031c600480360381019080803560ff169060200190929190803590602001908201803590602001908080601f0160208091040260200160405190810160405280939291908181526020018383808284378201915050505050509192919290505050610842565b604051808215151515815260200191505060405180910390f35b34801561034257600080fd5b5061034b610a7e565b6040518082815260200191505060405180910390f35b34801561036d57600080fd5b50610376610a84565b604051808573ffffffffffffffffffffffffffffffffffffffff1673ffffffffffffffffffffffffffffffffffffffff16815260200180602001848152602001838152602001828103825285818151815260200191508051906020019080838360005b838110156103f45780820151818401526020810190506103d9565b50505050905090810190601f1680156104215780820380516001836020036101000a031916815260200191505b509550505050505060405180910390f35b60035481565b600080600042915060006003541415610454576000925061046e565b6018603c60035484030281151561046757fe5b0490508092505b505090565b60008060004291506000600354141561048f57600092506104ab565b6018603c80600354850302028115156104a457fe5b0490508092505b505090565b60015481565b600060606000806104c5610c7b565b6000808773ffffffffffffffffffffffffffffffffffffffff1673ffffffffffffffffffffffffffffffffffffffff168152602001908152602001600020608060405190810160405290816000820160009054906101000a900473ffffffffffffffffffffffffffffffffffffffff1673ffffffffffffffffffffffffffffffffffffffff1673ffffffffffffffffffffffffffffffffffffffff168152602001600182018054600181600116156101000203166002900480601f0160208091040260200160405190810160405280929190818152602001828054600181600116156101000203166002900480156105fe5780601f106105d3576101008083540402835291602001916105fe565b820191906000526020600020905b8154815290600101906020018083116105e157829003601f168201915b50505050508152602001600282015481526020016003820154815250509050600081606001511415156107f4576000808773ffffffffffffffffffffffffffffffffffffffff1673ffffffffffffffffffffffffffffffffffffffff16815260200190815260200160002060000160009054906101000a900473ffffffffffffffffffffffffffffffffffffffff1694506000808773ffffffffffffffffffffffffffffffffffffffff1673ffffffffffffffffffffffffffffffffffffffff1681526020019081526020016000206001018054600181600116156101000203166002900480601f0160208091040260200160405190810160405280929190818152602001828054600181600116156101000203166002900480156107645780601f1061073957610100808354040283529160200191610764565b820191906000526020600020905b81548152906001019060200180831161074757829003601f168201915b505050505093506000808773ffffffffffffffffffffffffffffffffffffffff1673ffffffffffffffffffffffffffffffffffffffff1681526020019081526020016000206002015492506000808773ffffffffffffffffffffffffffffffffffffffff1673ffffffffffffffffffffffffffffffffffffffff1681526020019081526020016000206003015491505b509193509193565b600080600042915060006003541415610818576000925061082f565b6018600354830381151561082857fe5b0490508092505b505090565b600060015460025401905090565b600080600090505b60038160ff161015610a60578360ff1660048260ff1660038110151561086c57fe5b602091828204019190069054906101000a900460ff1660ff161415610a5357600260008154809291906001019190505550336000803373ffffffffffffffffffffffffffffffffffffffff1673ffffffffffffffffffffffffffffffffffffffff16815260200190815260200160002060000160006101000a81548173ffffffffffffffffffffffffffffffffffffffff021916908373ffffffffffffffffffffffffffffffffffffffff160217905550826000803373ffffffffffffffffffffffffffffffffffffffff1673ffffffffffffffffffffffffffffffffffffffff1681526020019081526020016000206001019080519060200190610972929190610cba565b508360ff166000803373ffffffffffffffffffffffffffffffffffffffff1673ffffffffffffffffffffffffffffffffffffffff16815260200190815260200160002060020181905550426000803373ffffffffffffffffffffffffffffffffffffffff1673ffffffffffffffffffffffffffffffffffffffff168152602001908152602001600020600301819055504260038190555033600560006101000a81548173ffffffffffffffffffffffffffffffffffffffff021916908373ffffffffffffffffffffffffffffffffffffffff16021790555060019150610a77565b808060010191505061084a565b600160008154809291906001019190505550600091505b5092915050565b60025481565b60006060600080600080600560009054906101000a900473ffffffffffffffffffffffffffffffffffffffff1673ffffffffffffffffffffffffffffffffffffffff1673ffffffffffffffffffffffffffffffffffffffff16815260200190815260200160002060000160009054906101000a900473ffffffffffffffffffffffffffffffffffffffff1693506000803373ffffffffffffffffffffffffffffffffffffffff1673ffffffffffffffffffffffffffffffffffffffff1681526020019081526020016000206001018054600181600116156101000203166002900480601f016020809104026020016040519081016040528092919081815260200182805460018160011615610100020316600290048015610be65780601f10610bbb57610100808354040283529160200191610be6565b820191906000526020600020905b815481529060010190602001808311610bc957829003601f168201915b505050505092506000803373ffffffffffffffffffffffffffffffffffffffff1673ffffffffffffffffffffffffffffffffffffffff1681526020019081526020016000206002015491506000803373ffffffffffffffffffffffffffffffffffffffff1673ffffffffffffffffffffffffffffffffffffffff16815260200190815260200160002060030154905090919293565b608060405190810160405280600073ffffffffffffffffffffffffffffffffffffffff1681526020016060815260200160008152602001600081525090565b828054600181600116156101000203166002900490600052602060002090601f016020900481019282601f10610cfb57805160ff1916838001178555610d29565b82800160010185558215610d29579182015b82811115610d28578251825591602001919060010190610d0d565b5b509050610d369190610d3a565b5090565b610d5c91905b80821115610d58576000816000905550600101610d40565b5090565b905600a165627a7a72305820e6bdd900602eb55e82949255de637b931fbba5b0f6f896166969c52cff1527140029",
  "source": "pragma solidity ^0.4.22;\n\ncontract MultiNumberBettingV4 {\n   \n   struct Winner {\n      address winnerAddress;\n      string name;\n      uint guess;\n      uint guessedAt;\n   }\n \n   // Winner winnerins;\n\n    mapping(address=>Winner) winnersMapping;\n\n  // Public to generate the getters\n    uint public  loserCount;\n    uint public  winnerCount;\n    uint public lastWinnerAt;\n\n   // string lastWinnerName;\n    uint8[3] storageArray;\n\n    address winner;\n\n   constructor(uint8 num1, uint8 num2, uint8 num3) public {\n        storageArray[0] = num1;   // 0\n        storageArray[1] = num2;   // 5\n        storageArray[2] = num3;   // 7\n    }  \n\n    function guess(uint8 betNumber, string name) public returns(bool) {\n    \n    for(uint8 i=0; i < storageArray.length; i++){\n        if (storageArray[i] == betNumber) {\n        // Increase the winner count\n          winnerCount++;\n          //lastWinnerName = name;\n          //lastWinnerAt = block.timestamp;  // can also use now\n          //winner = msg.sender;\n          \n          winnersMapping[msg.sender].winnerAddress = msg.sender;\n          winnersMapping[msg.sender].name = name;\n          winnersMapping[msg.sender].guess = betNumber;\n          winnersMapping[msg.sender].guessedAt = block.timestamp;\n\n          lastWinnerAt = block.timestamp;\n          winner = msg.sender;\n\n          // winnerins.winnerAddress = msg.sender;\n          // winnerins.name = name;\n          // winnerins.guess = betNumber;\n          // winnerins.guessedAt = block.timestamp;\n\n          return true;\n        } \n     }\n     \n    loserCount++;\n    return false;\n    } \n\n  // Ex-3\n /* function getLastWinner() public view returns (string) {\n\n      bytes memory nameBytes = bytes(lastWinnerName);\n      // If no winner send \"***\"\n      if (nameBytes.length == 0) {\n        return \"***\";\n      }\n\n    string memory retString = new string(3);\n\n    bytes memory toReturn = bytes(retString);\n\n    // 2nd check to cover a winner name less than 3 bytes\n    for (uint i = 0; (i < 3) && (i < nameBytes.length); i++) {\n      toReturn[i] = nameBytes[i];\n    }\n\n    return string(toReturn);\n  } */\n\n  // Ex 4 \n\n // Remember winner holds the address of the winner so we are getting\n  // the information from the winnersMapping for the address\n  // all values will be 0x0 if winner=0x0 i.e., if there is no winner\n  function getLastWinnerInfo() public returns ( address winnerAddress1,\n                                         string  name1, \n                                         uint guess1,\n                                         uint guessedAt1){\n\n    winnerAddress1 = winnersMapping[winner].winnerAddress;\n    name1 = winnersMapping[msg.sender].name;\n    guess1 = winnersMapping[msg.sender].guess;\n    guessedAt1 = winnersMapping[msg.sender].guessedAt;                              \n      \n  }\n\n  function checkWinning(address winnerAddress) public view returns(  address checkWinnerAddress, \n                                                      string  checkWinnerName,\n                                                      uint checkWinnerguessVal, \n                                                      uint checkWinnerguessedAt){\n    Winner memory winnerLocal = winnersMapping[winnerAddress];\n    if (winnerLocal.guessedAt != 0) {\n      checkWinnerAddress = winnersMapping[winnerAddress].winnerAddress;\n      checkWinnerName = winnersMapping[winnerAddress].name;\n      checkWinnerguessVal = winnersMapping[winnerAddress].guess;\n      checkWinnerguessedAt = winnersMapping[winnerAddress].guessedAt;\n    }\n  }\n\n// Total Bet played in the game\n  function totalGuesses() public view returns (uint){\n      return (winnerCount+loserCount);\n  }\n\n  function daysSinceLastWinning() public view returns(uint){\n    uint currentDateTime = block.timestamp;\n    uint dayPassed;\n\n    if (lastWinnerAt == 0) {\n      return 0;\n    } else {\n     dayPassed = (currentDateTime - lastWinnerAt)/24;\n     return dayPassed;\n    }\n  }\n \n  function hoursSinceLastWinning() public view returns(uint){\n    uint currentDateTime = block.timestamp;\n    uint dayPassed;\n\n    if (lastWinnerAt == 0) {\n      return 0;\n    } else {\n     dayPassed = ((currentDateTime - lastWinnerAt)*60)/24;\n     return dayPassed;\n    }\n  }\n\n  function minutesSinceLastWinning() public view returns(uint){\n    uint currentDateTime = block.timestamp;\n    uint dayPassed;\n\n    if (lastWinnerAt == 0) {\n      return 0;\n    } else {\n     dayPassed = ((currentDateTime - lastWinnerAt)*60*60)/24;\n     return dayPassed;\n    }\n  }\n\n  function timeSinceLastWinner() private constant returns(uint) {\n    uint timeSince = now - lastWinnerAt * 1 seconds;\n\n    timeSince < now ? lastWinnerAt : 0;\n  }\n    \n}\n",
  "sourcePath": "c:\\Users\\devra\\Desktop\\BlockChain\\myRopsten\\truffle\\BlockchianLearningDemos\\contracts\\MultiNumberBettingV4.sol",
  "compiler": {
    "name": "solc",
    "version": "0.4.24+commit.e67f0147.Emscripten.clang"
  },
  "schemaVersion": "2.0.1",
  "updatedAt": "2018-07-13T17:04:09.362Z"
}